:0300000002780083
:10780000787FE4F6D8FD75816102780C750A797588
:107810000BA0750C80750D00E4F508F509C3E509AA
:10782000947DE5089405501A050BE50BAE0A70022D
:10783000050A12787B7002050C12788A70DF050841
:1078400080DB750A7F750B1D750C87750D00E4F5DF
:1078500008F509C3E509948EE5089400501A050B54
:10786000E50BAE0A7002050A12787B7002050C1255
:10787000788A70DF050880DB0284B714F5828E8376
:10788000E493FF050DE50DAC0C2214F5828C83EF1B
:06789000F00509E50922E4
:1079A000E4FDFCC3ED9FEC9E5016E4FBFA000BBB1C
:1079B00000010ABA05F7BB7BF40DBD00010C80E3A2
:1079C00022751802E4F514F516F51D90C7D6E044AB
:1079D00008F07F327E00128000E054F7F090C7AECE
:1079E000741DF090C7AC7401F090C7A9741FF0909B
:1079F000C7AD7401F090C7AA741FF090C7811283BD
:107A00001490C78874C0F0A312831490C7DE740169
:107A1000F0A3F0E4A3F0A3F090C7ACE04402F09030
:107A2000C7DEE04402F090C7ADE04402F090C7DF4B
:107A3000E04402F090C7C774FFF022E51970089087
:107A4000C7B5F012832822E519C39515AF1550026A
:107A5000AF19AD1CAC1BE4FEEEC39F501E0DEDAA8A
:107A60000470010C14F5828A83E493FB74002EF5F4
:107A700082E434C7F583EBF00E80DD90C7B5EFF0FC
:107A8000251CF51CE4351BF51BC3E5199FF51922D0
:107A9000E490C701F090C700F0E518B4030890C760
:107AA000ECE070028036E51864047037E51A247F34
:107AB00060141460132402702AE51430E10690C7A4
:107AC000007402F08016801490C7ECE030E7059057
:107AD000C7B6800390C7C6E090C700F090C7B574E2
:107AE00002F02212832F2275152090C7EBE024FEAE
:107AF000602614603A24FA400221E324086002213F
:107B0000E7751B87751C0090C7EEE0C39412500404
:107B1000E0FF806A7F128066751B87751C1290C714
:107B2000EEE0C394205004E0FF80027F20804F905D
:107B3000C7EAE07017751B87751C8A90C7EEE0C313
:107B400094045004E0FF80027F04803290C7EAE092
:107B500014C39402502DE0B40108751B87751C32C4
:107B60008006751B87751C5C851C82851B83E493CE
:107B7000FF90C7EEE0C39F5005E0FEFF80008F1925
:107B800002809B12832F221283282290C7E8E0F5FF
:107B90001A5460F9706CA3E0601524FB601424FD96
:107BA000601714602F14604B240470540281470244
:107BB00080F0751803E4F51622E51824FC600E0425
:107BC0007059E490C700F090C7B504F02290C70048
:107BD000E516802490C7EAE014600B047013751852
:107BE00003E4F516803175180443140175160180FD
:107BF00026802890C700E51DF090C7B57401F022DB
:107C00008019B9201690C7EEE0600CE51A20E7074E
:107C100090C7C574FFF0221283282212832F22906E
:107C2000C7A8E0B4101190C7AB7410F0751802E447
:107C3000F516F51DF5142290C7A8E024FC60252454
:107C4000FC602624FC603224F4603524FC603A2475
:107C5000FC604624FC604D2424705890C7AB74012E
:107C6000F00281EB90C7AB802C90C7AB7404F0E4BA
:107C7000F51BF51CF519F5152290C7AB7408F02219
:107C800090C7A97401F002809B90C7AA7401F0E428
:107C9000F51990C7B47402F02290C7A97402F0904D
:107CA000C7B6F02290C7AA7402F075170190C7C733
:107CB00074FFF0227410F0A37430F0A37450F0A39A
:107CC0007470F0A37490F02290C7B47402F0229004
:107CD000C7B47411F022E4F50EE51E6037E521AE5D
:107CE000207806C333CE33CED8F9FF7CC67D407BE7
:107CF000407A001284F50521E52170020520051F58
:107D0000E490C680F0750E01E51F64086002817280
:107D1000F51E817290C640E024FE60331460521458
:107D2000601E1470028131147002815724056002B4
:107D3000817290C6807412F0E4A3F0750E02817215
:107D400090C641E0FF1284E71284DFE4F6816B12F3
:107D500084DFE66005E0FF1284E71284DF7601E04D
:107D600075F008A4F52185F020E4F51F751E01814A
:107D70006B90C641E0FFE520F520EFF52130FA33A6
:107D8000AE207803CEC313CE13D8F92422F8E660D0
:107D900005E4F50F8003750FFFE4F50E7480250EE2
:107DA000F582E434C6F583E50FF0050EE50EB44028
:107DB000EB8019E521AE207806C333CE33CED8F957
:107DC000FF7CC67D807B407A00128549750E40801D
:107DD00041750E01D2FB900023E0F4600890C6804C
:107DE0007401F0800E7E007F23E4FD128537E4905D
:107DF000C680F0C2FB801B90C641E0B4010974014B
:107E0000F5208521218003752000E490C680F0755F
:107E10000E01E50ED39400400690C7B7E50EF022A0
:107E2000E4FD74222DF8E4F6F50EF50FED25E0756E
:107E30008200F583C3E50E94025017E0F4600874E5
:107E4000222DF87601800B050FE50F7002050EA3B9
:107E500080E20DBD40CC22C2AF1284801280217519
:107E60008E02E4F520F521F51EF51730C4FDC2C4DD
:107E700012827FE51760F4128336E4F51780EC90E8
:107E8000C641E02422F8221285718FFA20FCFDC23F
:107E9000FD758E02228C108D111285718E128F133A
:107EA000EB1BAE0270011A4E60270511E511AE10F2
:107EB0007002051014F5828E83E0FF0513E513AC04
:107EC000127002051214F5828C83EFF030FCD18021
:107ED000FBC2FD758E02221285718F828E83EDF0BA
:107EE00020FCFDC2FD758E02228A108B11E5111552
:107EF00011AA10700215104A60168F828E83E08DD1
:107F0000828C83F00FBF00010E0DBD00010C80DDDF
:107F100022758E0175FAAA75FA55D2FD221201005A
:107F200002FFFFFF201519010101000102000109F4
:107F3000022000010102E0320904000002FF00FFFC
:107F40000007058102400006070501024000062ADD
:107F5000034E006F0072006400690063002000534C
:107F60000065006D00690063006F006E00640075BD
:107F700000630074006F0072002E036E0052004612
:107F800000320034004C005500310050002D0046F6
:107F90000033003200200042004F004F0054002008
:0B7FA000004C004400520004030904E0
:00000001FF
