:207E0000C2AF758150F185907E0005929086007F00F153F15302861890C7D67408F0E4F561
:207E200020F87D10FEFFDFFEDEFBDDF8F0740390C7DEF0A3F090C7A9F0A3F0A3F0A3F0A3AA
:207E4000F0A3F0742090C781F090C788F0A3F0C2C4F18530C4FB90C7A8E0B4003690C7EEE8
:207E6000E0FFA3E060027FFF90C7EBE0B4010790878F7E12C188B402079087A17E29C188FE
:207E8000B4220E9087CA7E18EE9FEE4001EFF8F161E131B4242975920030032590C7B6E033
:207EA000540270F8F17290C64005928A8589847F40F153C2FDAA85A984D202DB02C203E1E3
:207EC0002D90C640E0FEA3E0FFBE011090C6807420F0A37400F090C7B77440F0BE020EF1DE
:207EE0007BEFC3337B08FA7900D203D202BE0320EF75F040A4F582E4200102744025F0F52E
:207F000083059290C6807F40F15390C7B77440F0BE0404F17BD202BE0609C201EF7002D2F3
:207F200001D202BE070775B503F185E12B90C7C7F030020D90C680E4F090C7B77440F0C286
:207F400002740390C7A9F0A3F0A3F090C7B47402F0C14F1592E0A30592F0A320FCFDDFF3D2
:207F600022059290C7008807F15390C7B5E8F078002275FAAA75FA55D2FD22F1728FFA20C6
:207F8000FCFDC2FD2275AB0F75ACFF75AD08221201100100000040091203BB01000000002E
:207FA0000109022900010100801909040000020300000009211101000122180007058103D8
:207FC000400001070501034000010600FF0900A180150025FF75089540090181020902912C
:027FE00002C0DD
