:203E0000C2AF758150F183903E0005929086007F00F151F15102861890C7D67408F0E4F5E7
:203E200020F8FEFFDFFEDEFBF0740390C7DEF0A3F090C7A9F0A3F0A3F0A3F0A3F0A3F07455
:203E40002090C781F090C788F0A3F0C2C4F18330C4FBC2C490C7A8E0B4003690C7EEE0FFBC
:203E6000A3E060027FFF90C7EBE0B4010790878D7E12C186B4020790879F7E29C186B4224F
:203E80000E9087C87E18EE9FEE4001EFF8F15FE12FB4242975920030032590C7B6E05402F9
:203EA00070F8F17090C64005928A8589847F40F151C2FDAA85A984D202DB02C203E12B90C2
:203EC000C640E0FEA3E0FFBE011090C6807401F0A37401F090C7B77440F0BE020EF179EF91
:203EE000C3337B08FA7900D203D202BE0320EF75F040A4F582E4200102744025F0F5830550
:203F00009290C6807F40F15190C7B77440F0BE0404F179D202BE0609C201EF7002D201D2EC
:203F200002BE070775B503F183E12990C7C7F030020D90C680E4F090C7B77440F0C2027427
:203F40000390C7A9F0A3F0A3F090C7B47402F0C14D1592E0A30592F0A320FCFDDFF3220563
:203F60009290C7008807F15190C7B5E8F078002275FAAA75FA55D2FD22F1708FFA20FCFD38
:203F8000C2FD2275AB0F75ACFF75AD08221201100100000040151901010100000000010906
:203FA0000229000101008019090400000203000000092111010001221800070581034000E2
:203FC00001070501034000010600FF0900A180150025FF750895400901810209029102C0EA
